:100000000C9434000C9440000C945C000C943E0062
:100010000C943E000C943E000C943E000C943E0068
:100020000C943E000C943E000C943E000C943E0058
:100030000C943E000C943E000C943E000C943E0048
:100040000C943E000C943E000C943E000C943E0038
:100050000C943E000C943E000C943E000C943E0028
:100060000C943E000C943E0011241FBECFEFD8E04C
:10007000DEBFCDBF0E9478000C9493000C9400006A
:100080001F920F920FB60F9211242F938F939F936D
:1000900082E188B92FEF83EC99E0215080409040B5
:1000A000E1F700C0000018B89F918F912F910F9039
:1000B0000FBE0F901F9018951F920F920FB60F92C0
:1000C00011242F938F939F938CE088B92FEF83ECAB
:1000D00099E0215080409040E1F700C0000018B83E
:1000E0009F918F912F910F900FBE0F901F90189599
:1000F000E9E6F0E080818A60808380818A7F808366
:100100008DB383608DBB8AB18B7F8AB98AB1877FBB
:100110008AB98BB18C608BB98EE187B918B87894A5
:0A0120008AE088B9FDCFF894FFCF04
:00000001FF
